{
  "_format": "hh-sol-artifact-1",
  "contractName": "TestingContract",
  "sourceName": "contracts/TestingContract.sol",
  "abi": [
    {
      "inputs": [
        {
          "internalType": "address",
          "name": "initialOwner",
          "type": "address"
        }
      ],
      "stateMutability": "nonpayable",
      "type": "constructor"
    },
    {
      "inputs": [
        {
          "internalType": "address",
          "name": "sender",
          "type": "address"
        },
        {
          "internalType": "uint256",
          "name": "tokenId",
          "type": "uint256"
        },
        {
          "internalType": "address",
          "name": "owner",
          "type": "address"
        }
      ],
      "name": "ERC721IncorrectOwner",
      "type": "error"
    },
    {
      "inputs": [
        {
          "internalType": "address",
          "name": "operator",
          "type": "address"
        },
        {
          "internalType": "uint256",
          "name": "tokenId",
          "type": "uint256"
        }
      ],
      "name": "ERC721InsufficientApproval",
      "type": "error"
    },
    {
      "inputs": [
        {
          "internalType": "address",
          "name": "approver",
          "type": "address"
        }
      ],
      "name": "ERC721InvalidApprover",
      "type": "error"
    },
    {
      "inputs": [
        {
          "internalType": "address",
          "name": "operator",
          "type": "address"
        }
      ],
      "name": "ERC721InvalidOperator",
      "type": "error"
    },
    {
      "inputs": [
        {
          "internalType": "address",
          "name": "owner",
          "type": "address"
        }
      ],
      "name": "ERC721InvalidOwner",
      "type": "error"
    },
    {
      "inputs": [
        {
          "internalType": "address",
          "name": "receiver",
          "type": "address"
        }
      ],
      "name": "ERC721InvalidReceiver",
      "type": "error"
    },
    {
      "inputs": [
        {
          "internalType": "address",
          "name": "sender",
          "type": "address"
        }
      ],
      "name": "ERC721InvalidSender",
      "type": "error"
    },
    {
      "inputs": [
        {
          "internalType": "uint256",
          "name": "tokenId",
          "type": "uint256"
        }
      ],
      "name": "ERC721NonexistentToken",
      "type": "error"
    },
    {
      "inputs": [
        {
          "internalType": "address",
          "name": "owner",
          "type": "address"
        }
      ],
      "name": "OwnableInvalidOwner",
      "type": "error"
    },
    {
      "inputs": [
        {
          "internalType": "address",
          "name": "account",
          "type": "address"
        }
      ],
      "name": "OwnableUnauthorizedAccount",
      "type": "error"
    },
    {
      "anonymous": false,
      "inputs": [
        {
          "indexed": true,
          "internalType": "address",
          "name": "owner",
          "type": "address"
        },
        {
          "indexed": true,
          "internalType": "address",
          "name": "approved",
          "type": "address"
        },
        {
          "indexed": true,
          "internalType": "uint256",
          "name": "tokenId",
          "type": "uint256"
        }
      ],
      "name": "Approval",
      "type": "event"
    },
    {
      "anonymous": false,
      "inputs": [
        {
          "indexed": true,
          "internalType": "address",
          "name": "owner",
          "type": "address"
        },
        {
          "indexed": true,
          "internalType": "address",
          "name": "operator",
          "type": "address"
        },
        {
          "indexed": false,
          "internalType": "bool",
          "name": "approved",
          "type": "bool"
        }
      ],
      "name": "ApprovalForAll",
      "type": "event"
    },
    {
      "anonymous": false,
      "inputs": [
        {
          "indexed": false,
          "internalType": "uint256",
          "name": "degreeId",
          "type": "uint256"
        },
        {
          "indexed": true,
          "internalType": "address",
          "name": "university",
          "type": "address"
        },
        {
          "indexed": false,
          "internalType": "address",
          "name": "assignedMember",
          "type": "address"
        }
      ],
      "name": "DegreeMinted",
      "type": "event"
    },
    {
      "anonymous": false,
      "inputs": [
        {
          "indexed": false,
          "internalType": "uint256",
          "name": "degreeId",
          "type": "uint256"
        },
        {
          "indexed": false,
          "internalType": "bool",
          "name": "isValid",
          "type": "bool"
        }
      ],
      "name": "DegreeVerified",
      "type": "event"
    },
    {
      "anonymous": false,
      "inputs": [
        {
          "indexed": true,
          "internalType": "address",
          "name": "previousOwner",
          "type": "address"
        },
        {
          "indexed": true,
          "internalType": "address",
          "name": "newOwner",
          "type": "address"
        }
      ],
      "name": "OwnershipTransferred",
      "type": "event"
    },
    {
      "anonymous": false,
      "inputs": [
        {
          "indexed": true,
          "internalType": "address",
          "name": "from",
          "type": "address"
        },
        {
          "indexed": true,
          "internalType": "address",
          "name": "to",
          "type": "address"
        },
        {
          "indexed": true,
          "internalType": "uint256",
          "name": "tokenId",
          "type": "uint256"
        }
      ],
      "name": "Transfer",
      "type": "event"
    },
    {
      "anonymous": false,
      "inputs": [
        {
          "indexed": true,
          "internalType": "address",
          "name": "university",
          "type": "address"
        },
        {
          "indexed": false,
          "internalType": "address",
          "name": "digitalSignature",
          "type": "address"
        }
      ],
      "name": "UniversityAuthorized",
      "type": "event"
    },
    {
      "inputs": [
        {
          "internalType": "address",
          "name": "to",
          "type": "address"
        },
        {
          "internalType": "uint256",
          "name": "tokenId",
          "type": "uint256"
        }
      ],
      "name": "approve",
      "outputs": [],
      "stateMutability": "nonpayable",
      "type": "function"
    },
    {
      "inputs": [
        {
          "internalType": "address",
          "name": "_university",
          "type": "address"
        },
        {
          "internalType": "address",
          "name": "_digitalSignature",
          "type": "address"
        }
      ],
      "name": "authorizeUniversity",
      "outputs": [],
      "stateMutability": "nonpayable",
      "type": "function"
    },
    {
      "inputs": [
        {
          "internalType": "address",
          "name": "owner",
          "type": "address"
        }
      ],
      "name": "balanceOf",
      "outputs": [
        {
          "internalType": "uint256",
          "name": "",
          "type": "uint256"
        }
      ],
      "stateMutability": "view",
      "type": "function"
    },
    {
      "inputs": [
        {
          "internalType": "uint256",
          "name": "",
          "type": "uint256"
        }
      ],
      "name": "degreeNFTs",
      "outputs": [
        {
          "internalType": "string",
          "name": "degreeHash",
          "type": "string"
        },
        {
          "internalType": "address",
          "name": "issuedBy",
          "type": "address"
        },
        {
          "internalType": "address",
          "name": "assignedMember",
          "type": "address"
        },
        {
          "internalType": "bool",
          "name": "isValid",
          "type": "bool"
        }
      ],
      "stateMutability": "view",
      "type": "function"
    },
    {
      "inputs": [
        {
          "internalType": "uint256",
          "name": "tokenId",
          "type": "uint256"
        }
      ],
      "name": "getApproved",
      "outputs": [
        {
          "internalType": "address",
          "name": "",
          "type": "address"
        }
      ],
      "stateMutability": "view",
      "type": "function"
    },
    {
      "inputs": [
        {
          "internalType": "uint256",
          "name": "_degreeId",
          "type": "uint256"
        }
      ],
      "name": "getDegreeInfo",
      "outputs": [
        {
          "internalType": "string",
          "name": "",
          "type": "string"
        },
        {
          "internalType": "address",
          "name": "",
          "type": "address"
        },
        {
          "internalType": "address",
          "name": "",
          "type": "address"
        },
        {
          "internalType": "bool",
          "name": "",
          "type": "bool"
        }
      ],
      "stateMutability": "view",
      "type": "function"
    },
    {
      "inputs": [
        {
          "internalType": "address",
          "name": "owner",
          "type": "address"
        },
        {
          "internalType": "address",
          "name": "operator",
          "type": "address"
        }
      ],
      "name": "isApprovedForAll",
      "outputs": [
        {
          "internalType": "bool",
          "name": "",
          "type": "bool"
        }
      ],
      "stateMutability": "view",
      "type": "function"
    },
    {
      "inputs": [
        {
          "internalType": "address",
          "name": "",
          "type": "address"
        }
      ],
      "name": "memberStakes",
      "outputs": [
        {
          "internalType": "uint256",
          "name": "",
          "type": "uint256"
        }
      ],
      "stateMutability": "view",
      "type": "function"
    },
    {
      "inputs": [
        {
          "internalType": "address",
          "name": "_to",
          "type": "address"
        },
        {
          "internalType": "string",
          "name": "_degreeHash",
          "type": "string"
        },
        {
          "internalType": "address",
          "name": "_assignedMember",
          "type": "address"
        }
      ],
      "name": "mintDegreeNFT",
      "outputs": [
        {
          "internalType": "uint256",
          "name": "",
          "type": "uint256"
        }
      ],
      "stateMutability": "nonpayable",
      "type": "function"
    },
    {
      "inputs": [],
      "name": "name",
      "outputs": [
        {
          "internalType": "string",
          "name": "",
          "type": "string"
        }
      ],
      "stateMutability": "view",
      "type": "function"
    },
    {
      "inputs": [],
      "name": "nextDegreeId",
      "outputs": [
        {
          "internalType": "uint256",
          "name": "",
          "type": "uint256"
        }
      ],
      "stateMutability": "view",
      "type": "function"
    },
    {
      "inputs": [],
      "name": "owner",
      "outputs": [
        {
          "internalType": "address",
          "name": "",
          "type": "address"
        }
      ],
      "stateMutability": "view",
      "type": "function"
    },
    {
      "inputs": [
        {
          "internalType": "uint256",
          "name": "tokenId",
          "type": "uint256"
        }
      ],
      "name": "ownerOf",
      "outputs": [
        {
          "internalType": "address",
          "name": "",
          "type": "address"
        }
      ],
      "stateMutability": "view",
      "type": "function"
    },
    {
      "inputs": [],
      "name": "renounceOwnership",
      "outputs": [],
      "stateMutability": "nonpayable",
      "type": "function"
    },
    {
      "inputs": [
        {
          "internalType": "uint256",
          "name": "_degreeId",
          "type": "uint256"
        }
      ],
      "name": "revokeDegreeNFT",
      "outputs": [],
      "stateMutability": "nonpayable",
      "type": "function"
    },
    {
      "inputs": [
        {
          "internalType": "address",
          "name": "from",
          "type": "address"
        },
        {
          "internalType": "address",
          "name": "to",
          "type": "address"
        },
        {
          "internalType": "uint256",
          "name": "tokenId",
          "type": "uint256"
        }
      ],
      "name": "safeTransferFrom",
      "outputs": [],
      "stateMutability": "nonpayable",
      "type": "function"
    },
    {
      "inputs": [
        {
          "internalType": "address",
          "name": "from",
          "type": "address"
        },
        {
          "internalType": "address",
          "name": "to",
          "type": "address"
        },
        {
          "internalType": "uint256",
          "name": "tokenId",
          "type": "uint256"
        },
        {
          "internalType": "bytes",
          "name": "data",
          "type": "bytes"
        }
      ],
      "name": "safeTransferFrom",
      "outputs": [],
      "stateMutability": "nonpayable",
      "type": "function"
    },
    {
      "inputs": [
        {
          "internalType": "address",
          "name": "operator",
          "type": "address"
        },
        {
          "internalType": "bool",
          "name": "approved",
          "type": "bool"
        }
      ],
      "name": "setApprovalForAll",
      "outputs": [],
      "stateMutability": "nonpayable",
      "type": "function"
    },
    {
      "inputs": [
        {
          "internalType": "uint256",
          "name": "_amount",
          "type": "uint256"
        }
      ],
      "name": "stakeTokens",
      "outputs": [],
      "stateMutability": "nonpayable",
      "type": "function"
    },
    {
      "inputs": [
        {
          "internalType": "bytes4",
          "name": "interfaceId",
          "type": "bytes4"
        }
      ],
      "name": "supportsInterface",
      "outputs": [
        {
          "internalType": "bool",
          "name": "",
          "type": "bool"
        }
      ],
      "stateMutability": "view",
      "type": "function"
    },
    {
      "inputs": [],
      "name": "symbol",
      "outputs": [
        {
          "internalType": "string",
          "name": "",
          "type": "string"
        }
      ],
      "stateMutability": "view",
      "type": "function"
    },
    {
      "inputs": [
        {
          "internalType": "uint256",
          "name": "tokenId",
          "type": "uint256"
        }
      ],
      "name": "tokenURI",
      "outputs": [
        {
          "internalType": "string",
          "name": "",
          "type": "string"
        }
      ],
      "stateMutability": "view",
      "type": "function"
    },
    {
      "inputs": [
        {
          "internalType": "address",
          "name": "from",
          "type": "address"
        },
        {
          "internalType": "address",
          "name": "to",
          "type": "address"
        },
        {
          "internalType": "uint256",
          "name": "tokenId",
          "type": "uint256"
        }
      ],
      "name": "transferFrom",
      "outputs": [],
      "stateMutability": "nonpayable",
      "type": "function"
    },
    {
      "inputs": [
        {
          "internalType": "address",
          "name": "newOwner",
          "type": "address"
        }
      ],
      "name": "transferOwnership",
      "outputs": [],
      "stateMutability": "nonpayable",
      "type": "function"
    },
    {
      "inputs": [
        {
          "internalType": "address",
          "name": "",
          "type": "address"
        }
      ],
      "name": "universities",
      "outputs": [
        {
          "internalType": "bool",
          "name": "isAuthorized",
          "type": "bool"
        },
        {
          "internalType": "address",
          "name": "digitalSignature",
          "type": "address"
        }
      ],
      "stateMutability": "view",
      "type": "function"
    },
    {
      "inputs": [
        {
          "internalType": "uint256",
          "name": "_degreeId",
          "type": "uint256"
        }
      ],
      "name": "verifyDegreeNFT",
      "outputs": [],
      "stateMutability": "nonpayable",
      "type": "function"
    }
  ],
  "bytecode": "0x6080604052600160075534801561001557600080fd5b50604051613ac3380380613ac383398181016040528101906100379190610277565b806040518060400160405280600f81526020017f54657374696e67436f6e747261637400000000000000000000000000000000008152506040518060400160405280600781526020017f504f53444e46540000000000000000000000000000000000000000000000000081525081600090816100b391906104f4565b5080600190816100c391906104f4565b505050600073ffffffffffffffffffffffffffffffffffffffff168173ffffffffffffffffffffffffffffffffffffffff16036101385760006040517f1e4fbdf700000000000000000000000000000000000000000000000000000000815260040161012f91906105d5565b60405180910390fd5b6101478161014e60201b60201c565b50506105f0565b6000600660009054906101000a900473ffffffffffffffffffffffffffffffffffffffff16905081600660006101000a81548173ffffffffffffffffffffffffffffffffffffffff021916908373ffffffffffffffffffffffffffffffffffffffff1602179055508173ffffffffffffffffffffffffffffffffffffffff168173ffffffffffffffffffffffffffffffffffffffff167f8be0079c531659141344cd1fd0a4f28419497f9722a3daafe3b4186f6b6457e060405160405180910390a35050565b600080fd5b600073ffffffffffffffffffffffffffffffffffffffff82169050919050565b600061024482610219565b9050919050565b61025481610239565b811461025f57600080fd5b50565b6000815190506102718161024b565b92915050565b60006020828403121561028d5761028c610214565b5b600061029b84828501610262565b91505092915050565b600081519050919050565b7f4e487b7100000000000000000000000000000000000000000000000000000000600052604160045260246000fd5b7f4e487b7100000000000000000000000000000000000000000000000000000000600052602260045260246000fd5b6000600282049050600182168061032557607f821691505b602082108103610338576103376102de565b5b50919050565b60008190508160005260206000209050919050565b60006020601f8301049050919050565b600082821b905092915050565b6000600883026103a07fffffffffffffffffffffffffffffffffffffffffffffffffffffffffffffffff82610363565b6103aa8683610363565b95508019841693508086168417925050509392505050565b6000819050919050565b6000819050919050565b60006103f16103ec6103e7846103c2565b6103cc565b6103c2565b9050919050565b6000819050919050565b61040b836103d6565b61041f610417826103f8565b848454610370565b825550505050565b600090565b610434610427565b61043f818484610402565b505050565b5b818110156104635761045860008261042c565b600181019050610445565b5050565b601f8211156104a8576104798161033e565b61048284610353565b81016020851015610491578190505b6104a561049d85610353565b830182610444565b50505b505050565b600082821c905092915050565b60006104cb600019846008026104ad565b1980831691505092915050565b60006104e483836104ba565b9150826002028217905092915050565b6104fd826102a4565b67ffffffffffffffff811115610516576105156102af565b5b610520825461030d565b61052b828285610467565b600060209050601f83116001811461055e576000841561054c578287015190505b61055685826104d8565b8655506105be565b601f19841661056c8661033e565b60005b828110156105945784890151825560018201915060208501945060208101905061056f565b868310156105b157848901516105ad601f8916826104ba565b8355505b6001600288020188555050505b505050505050565b6105cf81610239565b82525050565b60006020820190506105ea60008301846105c6565b92915050565b6134c4806105ff6000396000f3fe608060405234801561001057600080fd5b506004361061018e5760003560e01c8063715018a6116100de578063b88d4fde11610097578063f058720c11610071578063f058720c146104a9578063f0995560146104c7578063f25a6c1e146104f8578063f2fde38b146105285761018e565b8063b88d4fde1461042d578063c87b56dd14610449578063e985e9c5146104795761018e565b8063715018a61461039357806372cc6f3c1461039d5780637547c7a3146103b95780638da5cb5b146103d557806395d89b41146103f3578063a22cb465146104115761018e565b806323b872dd1161014b57806337e5c37d1161012557806337e5c37d146102e457806342842e0e146103175780636352211e1461033357806370a08231146103635761018e565b806323b872dd1461026557806324cdf4581461028157806326a91852146102b15761018e565b806301ffc9a71461019357806306fdde03146101c3578063081812fc146101e1578063095ea7b3146102115780630b29f7981461022d578063193f95da14610249575b600080fd5b6101ad60048036038101906101a891906124c8565b610544565b6040516101ba9190612510565b60405180910390f35b6101cb610626565b6040516101d891906125bb565b60405180910390f35b6101fb60048036038101906101f69190612613565b6106b8565b6040516102089190612681565b60405180910390f35b61022b600480360381019061022691906126c8565b6106d4565b005b61024760048036038101906102429190612708565b6106ea565b005b610263600480360381019061025e9190612613565b61081b565b005b61027f600480360381019061027a9190612748565b610953565b005b61029b6004803603810190610296919061279b565b610a55565b6040516102a891906127d7565b60405180910390f35b6102cb60048036038101906102c69190612613565b610a6d565b6040516102db94939291906127f2565b60405180910390f35b6102fe60048036038101906102f99190612613565b610b72565b60405161030e94939291906127f2565b60405180910390f35b610331600480360381019061032c9190612748565b610d17565b005b61034d60048036038101906103489190612613565b610d37565b60405161035a9190612681565b60405180910390f35b61037d6004803603810190610378919061279b565b610d49565b60405161038a91906127d7565b60405180910390f35b61039b610e03565b005b6103b760048036038101906103b29190612613565b610e17565b005b6103d360048036038101906103ce9190612613565b610faa565b005b6103dd611046565b6040516103ea9190612681565b60405180910390f35b6103fb611070565b60405161040891906125bb565b60405180910390f35b61042b6004803603810190610426919061286a565b611102565b005b610447600480360381019061044291906129df565b611118565b005b610463600480360381019061045e9190612613565b61113d565b60405161047091906125bb565b60405180910390f35b610493600480360381019061048e9190612708565b6111a6565b6040516104a09190612510565b60405180910390f35b6104b161123a565b6040516104be91906127d7565b60405180910390f35b6104e160048036038101906104dc919061279b565b611240565b6040516104ef929190612a62565b60405180910390f35b610512600480360381019061050d9190612b2c565b611291565b60405161051f91906127d7565b60405180910390f35b610542600480360381019061053d919061279b565b61154e565b005b60007f80ac58cd000000000000000000000000000000000000000000000000000000007bffffffffffffffffffffffffffffffffffffffffffffffffffffffff1916827bffffffffffffffffffffffffffffffffffffffffffffffffffffffff1916148061060f57507f5b5e139f000000000000000000000000000000000000000000000000000000007bffffffffffffffffffffffffffffffffffffffffffffffffffffffff1916827bffffffffffffffffffffffffffffffffffffffffffffffffffffffff1916145b8061061f575061061e826115d4565b5b9050919050565b60606000805461063590612bca565b80601f016020809104026020016040519081016040528092919081815260200182805461066190612bca565b80156106ae5780601f10610683576101008083540402835291602001916106ae565b820191906000526020600020905b81548152906001019060200180831161069157829003601f168201915b5050505050905090565b60006106c38261163e565b506106cd826116c6565b9050919050565b6106e682826106e1611703565b61170b565b5050565b6106f261171d565b60405180604001604052806001151581526020018273ffffffffffffffffffffffffffffffffffffffff16815250600860008473ffffffffffffffffffffffffffffffffffffffff1673ffffffffffffffffffffffffffffffffffffffff16815260200190815260200160002060008201518160000160006101000a81548160ff02191690831515021790555060208201518160000160016101000a81548173ffffffffffffffffffffffffffffffffffffffff021916908373ffffffffffffffffffffffffffffffffffffffff1602179055509050508173ffffffffffffffffffffffffffffffffffffffff167febdb7a480d3933900d8305d8002f8be57e6e5d66624aa36e646ee9b56a19a6c18260405161080f9190612681565b60405180910390a25050565b60006009600083815260200190815260200160002090503373ffffffffffffffffffffffffffffffffffffffff168160020160009054906101000a900473ffffffffffffffffffffffffffffffffffffffff1673ffffffffffffffffffffffffffffffffffffffff16146108c4576040517f08c379a00000000000000000000000000000000000000000000000000000000081526004016108bb90612c6d565b60405180910390fd5b8060020160149054906101000a900460ff16610915576040517f08c379a000000000000000000000000000000000000000000000000000000000815260040161090c90612cff565b60405180910390fd5b7fac4da285bcafa5621a1adede462482440b58bcaa11c953aca97fee746bf852f2826001604051610947929190612d1f565b60405180910390a15050565b600073ffffffffffffffffffffffffffffffffffffffff168273ffffffffffffffffffffffffffffffffffffffff16036109c55760006040517f64a0ae920000000000000000000000000000000000000000000000000000000081526004016109bc9190612681565b60405180910390fd5b60006109d983836109d4611703565b6117a4565b90508373ffffffffffffffffffffffffffffffffffffffff168173ffffffffffffffffffffffffffffffffffffffff1614610a4f578382826040517f64283d7b000000000000000000000000000000000000000000000000000000008152600401610a4693929190612d48565b60405180910390fd5b50505050565b600a6020528060005260406000206000915090505481565b6009602052806000526040600020600091509050806000018054610a9090612bca565b80601f0160208091040260200160405190810160405280929190818152602001828054610abc90612bca565b8015610b095780601f10610ade57610100808354040283529160200191610b09565b820191906000526020600020905b815481529060010190602001808311610aec57829003601f168201915b5050505050908060010160009054906101000a900473ffffffffffffffffffffffffffffffffffffffff16908060020160009054906101000a900473ffffffffffffffffffffffffffffffffffffffff16908060020160149054906101000a900460ff16905084565b606060008060008060096000878152602001908152602001600020604051806080016040529081600082018054610ba890612bca565b80601f0160208091040260200160405190810160405280929190818152602001828054610bd490612bca565b8015610c215780601f10610bf657610100808354040283529160200191610c21565b820191906000526020600020905b815481529060010190602001808311610c0457829003601f168201915b505050505081526020016001820160009054906101000a900473ffffffffffffffffffffffffffffffffffffffff1673ffffffffffffffffffffffffffffffffffffffff1673ffffffffffffffffffffffffffffffffffffffff1681526020016002820160009054906101000a900473ffffffffffffffffffffffffffffffffffffffff1673ffffffffffffffffffffffffffffffffffffffff1673ffffffffffffffffffffffffffffffffffffffff1681526020016002820160149054906101000a900460ff161515151581525050905080600001518160200151826040015183606001519450945094509450509193509193565b610d3283838360405180602001604052806000815250611118565b505050565b6000610d428261163e565b9050919050565b60008073ffffffffffffffffffffffffffffffffffffffff168273ffffffffffffffffffffffffffffffffffffffff1603610dbc5760006040517f89c62b64000000000000000000000000000000000000000000000000000000008152600401610db39190612681565b60405180910390fd5b600360008373ffffffffffffffffffffffffffffffffffffffff1673ffffffffffffffffffffffffffffffffffffffff168152602001908152602001600020549050919050565b610e0b61171d565b610e1560006119be565b565b600860003373ffffffffffffffffffffffffffffffffffffffff1673ffffffffffffffffffffffffffffffffffffffff16815260200190815260200160002060000160009054906101000a900460ff16610ea6576040517f08c379a0000000000000000000000000000000000000000000000000000000008152600401610e9d90612df1565b60405180910390fd5b60006009600083815260200190815260200160002090503373ffffffffffffffffffffffffffffffffffffffff168160010160009054906101000a900473ffffffffffffffffffffffffffffffffffffffff1673ffffffffffffffffffffffffffffffffffffffff1614610f4f576040517f08c379a0000000000000000000000000000000000000000000000000000000008152600401610f4690612e83565b60405180910390fd5b60008160020160146101000a81548160ff0219169083151502179055507fac4da285bcafa5621a1adede462482440b58bcaa11c953aca97fee746bf852f2826000604051610f9e929190612d1f565b60405180910390a15050565b60008111610fed576040517f08c379a0000000000000000000000000000000000000000000000000000000008152600401610fe490612eef565b60405180910390fd5b80600a60003373ffffffffffffffffffffffffffffffffffffffff1673ffffffffffffffffffffffffffffffffffffffff168152602001908152602001600020600082825461103c9190612f3e565b9250508190555050565b6000600660009054906101000a900473ffffffffffffffffffffffffffffffffffffffff16905090565b60606001805461107f90612bca565b80601f01602080910402602001604051908101604052809291908181526020018280546110ab90612bca565b80156110f85780601f106110cd576101008083540402835291602001916110f8565b820191906000526020600020905b8154815290600101906020018083116110db57829003601f168201915b5050505050905090565b61111461110d611703565b8383611a84565b5050565b611123848484610953565b61113761112e611703565b85858585611bf3565b50505050565b60606111488261163e565b506000611153611da4565b90506000815111611173576040518060200160405280600081525061119e565b8061117d84611dbb565b60405160200161118e929190612fae565b6040516020818303038152906040525b915050919050565b6000600560008473ffffffffffffffffffffffffffffffffffffffff1673ffffffffffffffffffffffffffffffffffffffff16815260200190815260200160002060008373ffffffffffffffffffffffffffffffffffffffff1673ffffffffffffffffffffffffffffffffffffffff16815260200190815260200160002060009054906101000a900460ff16905092915050565b60075481565b60086020528060005260406000206000915090508060000160009054906101000a900460ff16908060000160019054906101000a900473ffffffffffffffffffffffffffffffffffffffff16905082565b6000600860003373ffffffffffffffffffffffffffffffffffffffff1673ffffffffffffffffffffffffffffffffffffffff16815260200190815260200160002060000160009054906101000a900460ff16611322576040517f08c379a000000000000000000000000000000000000000000000000000000000815260040161131990612df1565b60405180910390fd5b6000600a60008473ffffffffffffffffffffffffffffffffffffffff1673ffffffffffffffffffffffffffffffffffffffff16815260200190815260200160002054116113a4576040517f08c379a000000000000000000000000000000000000000000000000000000000815260040161139b90613044565b60405180910390fd5b6000600760008154809291906113b990613064565b9190505590506113c98582611e89565b60405180608001604052808581526020013373ffffffffffffffffffffffffffffffffffffffff1681526020018473ffffffffffffffffffffffffffffffffffffffff168152602001600115158152506009600083815260200190815260200160002060008201518160000190816114419190613258565b5060208201518160010160006101000a81548173ffffffffffffffffffffffffffffffffffffffff021916908373ffffffffffffffffffffffffffffffffffffffff16021790555060408201518160020160006101000a81548173ffffffffffffffffffffffffffffffffffffffff021916908373ffffffffffffffffffffffffffffffffffffffff16021790555060608201518160020160146101000a81548160ff0219169083151502179055509050503373ffffffffffffffffffffffffffffffffffffffff167f174cb6427cc1e23db81e4b546f9b46042a8fcb7e06f66240bf9c62ba4b77cb0d828560405161153b92919061332a565b60405180910390a2809150509392505050565b61155661171d565b600073ffffffffffffffffffffffffffffffffffffffff168173ffffffffffffffffffffffffffffffffffffffff16036115c85760006040517f1e4fbdf70000000000000000000000000000000000000000000000000000000081526004016115bf9190612681565b60405180910390fd5b6115d1816119be565b50565b60007f01ffc9a7000000000000000000000000000000000000000000000000000000007bffffffffffffffffffffffffffffffffffffffffffffffffffffffff1916827bffffffffffffffffffffffffffffffffffffffffffffffffffffffff1916149050919050565b60008061164a83611f82565b9050600073ffffffffffffffffffffffffffffffffffffffff168173ffffffffffffffffffffffffffffffffffffffff16036116bd57826040517f7e2732890000000000000000000000000000000000000000000000000000000081526004016116b491906127d7565b60405180910390fd5b80915050919050565b60006004600083815260200190815260200160002060009054906101000a900473ffffffffffffffffffffffffffffffffffffffff169050919050565b600033905090565b6117188383836001611fbf565b505050565b611725611703565b73ffffffffffffffffffffffffffffffffffffffff16611743611046565b73ffffffffffffffffffffffffffffffffffffffff16146117a257611766611703565b6040517f118cdaa70000000000000000000000000000000000000000000000000000000081526004016117999190612681565b60405180910390fd5b565b6000806117b084611f82565b9050600073ffffffffffffffffffffffffffffffffffffffff168373ffffffffffffffffffffffffffffffffffffffff16146117f2576117f1818486612184565b5b600073ffffffffffffffffffffffffffffffffffffffff168173ffffffffffffffffffffffffffffffffffffffff161461188357611834600085600080611fbf565b6001600360008373ffffffffffffffffffffffffffffffffffffffff1673ffffffffffffffffffffffffffffffffffffffff168152602001908152602001600020600082825403925050819055505b600073ffffffffffffffffffffffffffffffffffffffff168573ffffffffffffffffffffffffffffffffffffffff1614611906576001600360008773ffffffffffffffffffffffffffffffffffffffff1673ffffffffffffffffffffffffffffffffffffffff168152602001908152602001600020600082825401925050819055505b846002600086815260200190815260200160002060006101000a81548173ffffffffffffffffffffffffffffffffffffffff021916908373ffffffffffffffffffffffffffffffffffffffff160217905550838573ffffffffffffffffffffffffffffffffffffffff168273ffffffffffffffffffffffffffffffffffffffff167fddf252ad1be2c89b69c2b068fc378daa952ba7f163c4a11628f55a4df523b3ef60405160405180910390a4809150509392505050565b6000600660009054906101000a900473ffffffffffffffffffffffffffffffffffffffff16905081600660006101000a81548173ffffffffffffffffffffffffffffffffffffffff021916908373ffffffffffffffffffffffffffffffffffffffff1602179055508173ffffffffffffffffffffffffffffffffffffffff168173ffffffffffffffffffffffffffffffffffffffff167f8be0079c531659141344cd1fd0a4f28419497f9722a3daafe3b4186f6b6457e060405160405180910390a35050565b600073ffffffffffffffffffffffffffffffffffffffff168273ffffffffffffffffffffffffffffffffffffffff1603611af557816040517f5b08ba18000000000000000000000000000000000000000000000000000000008152600401611aec9190612681565b60405180910390fd5b80600560008573ffffffffffffffffffffffffffffffffffffffff1673ffffffffffffffffffffffffffffffffffffffff16815260200190815260200160002060008473ffffffffffffffffffffffffffffffffffffffff1673ffffffffffffffffffffffffffffffffffffffff16815260200190815260200160002060006101000a81548160ff0219169083151502179055508173ffffffffffffffffffffffffffffffffffffffff168373ffffffffffffffffffffffffffffffffffffffff167f17307eab39ab6107e8899845ad3d59bd9653f200f220920489ca2b5937696c3183604051611be69190612510565b60405180910390a3505050565b60008373ffffffffffffffffffffffffffffffffffffffff163b1115611d9d578273ffffffffffffffffffffffffffffffffffffffff1663150b7a02868685856040518563ffffffff1660e01b8152600401611c5294939291906133a8565b6020604051808303816000875af1925050508015611c8e57506040513d601f19601f82011682018060405250810190611c8b9190613409565b60015b611d12573d8060008114611cbe576040519150601f19603f3d011682016040523d82523d6000602084013e611cc3565b606091505b506000815103611d0a57836040517f64a0ae92000000000000000000000000000000000000000000000000000000008152600401611d019190612681565b60405180910390fd5b805181602001fd5b63150b7a0260e01b7bffffffffffffffffffffffffffffffffffffffffffffffffffffffff1916817bffffffffffffffffffffffffffffffffffffffffffffffffffffffff191614611d9b57836040517f64a0ae92000000000000000000000000000000000000000000000000000000008152600401611d929190612681565b60405180910390fd5b505b5050505050565b606060405180602001604052806000815250905090565b606060006001611dca84612248565b01905060008167ffffffffffffffff811115611de957611de86128b4565b5b6040519080825280601f01601f191660200182016040528015611e1b5781602001600182028036833780820191505090505b509050600082602001820190505b600115611e7e578080600190039150507f3031323334353637383961626364656600000000000000000000000000000000600a86061a8153600a8581611e7257611e71613436565b5b04945060008503611e29575b819350505050919050565b600073ffffffffffffffffffffffffffffffffffffffff168273ffffffffffffffffffffffffffffffffffffffff1603611efb5760006040517f64a0ae92000000000000000000000000000000000000000000000000000000008152600401611ef29190612681565b60405180910390fd5b6000611f09838360006117a4565b9050600073ffffffffffffffffffffffffffffffffffffffff168173ffffffffffffffffffffffffffffffffffffffff1614611f7d5760006040517f73c6ac6e000000000000000000000000000000000000000000000000000000008152600401611f749190612681565b60405180910390fd5b505050565b60006002600083815260200190815260200160002060009054906101000a900473ffffffffffffffffffffffffffffffffffffffff169050919050565b8080611ff85750600073ffffffffffffffffffffffffffffffffffffffff168273ffffffffffffffffffffffffffffffffffffffff1614155b1561212c5760006120088461163e565b9050600073ffffffffffffffffffffffffffffffffffffffff168373ffffffffffffffffffffffffffffffffffffffff161415801561207357508273ffffffffffffffffffffffffffffffffffffffff168173ffffffffffffffffffffffffffffffffffffffff1614155b8015612086575061208481846111a6565b155b156120c857826040517fa9fbf51f0000000000000000000000000000000000000000000000000000000081526004016120bf9190612681565b60405180910390fd5b811561212a57838573ffffffffffffffffffffffffffffffffffffffff168273ffffffffffffffffffffffffffffffffffffffff167f8c5be1e5ebec7d5bd14f71427d1e84f3dd0314c0f7b2291e5b200ac8c7c3b92560405160405180910390a45b505b836004600085815260200190815260200160002060006101000a81548173ffffffffffffffffffffffffffffffffffffffff021916908373ffffffffffffffffffffffffffffffffffffffff16021790555050505050565b61218f83838361239b565b61224357600073ffffffffffffffffffffffffffffffffffffffff168373ffffffffffffffffffffffffffffffffffffffff160361220457806040517f7e2732890000000000000000000000000000000000000000000000000000000081526004016121fb91906127d7565b60405180910390fd5b81816040517f177e802f00000000000000000000000000000000000000000000000000000000815260040161223a929190613465565b60405180910390fd5b505050565b600080600090507a184f03e93ff9f4daa797ed6e38ed64bf6a1f01000000000000000083106122a6577a184f03e93ff9f4daa797ed6e38ed64bf6a1f010000000000000000838161229c5761229b613436565b5b0492506040810190505b6d04ee2d6d415b85acef810000000083106122e3576d04ee2d6d415b85acef810000000083816122d9576122d8613436565b5b0492506020810190505b662386f26fc10000831061231257662386f26fc10000838161230857612307613436565b5b0492506010810190505b6305f5e100831061233b576305f5e100838161233157612330613436565b5b0492506008810190505b612710831061236057612710838161235657612355613436565b5b0492506004810190505b60648310612383576064838161237957612378613436565b5b0492506002810190505b600a8310612392576001810190505b80915050919050565b60008073ffffffffffffffffffffffffffffffffffffffff168373ffffffffffffffffffffffffffffffffffffffff161415801561245357508273ffffffffffffffffffffffffffffffffffffffff168473ffffffffffffffffffffffffffffffffffffffff161480612414575061241384846111a6565b5b8061245257508273ffffffffffffffffffffffffffffffffffffffff1661243a836116c6565b73ffffffffffffffffffffffffffffffffffffffff16145b5b90509392505050565b6000604051905090565b600080fd5b600080fd5b60007fffffffff0000000000000000000000000000000000000000000000000000000082169050919050565b6124a581612470565b81146124b057600080fd5b50565b6000813590506124c28161249c565b92915050565b6000602082840312156124de576124dd612466565b5b60006124ec848285016124b3565b91505092915050565b60008115159050919050565b61250a816124f5565b82525050565b60006020820190506125256000830184612501565b92915050565b600081519050919050565b600082825260208201905092915050565b60005b8381101561256557808201518184015260208101905061254a565b60008484015250505050565b6000601f19601f8301169050919050565b600061258d8261252b565b6125978185612536565b93506125a7818560208601612547565b6125b081612571565b840191505092915050565b600060208201905081810360008301526125d58184612582565b905092915050565b6000819050919050565b6125f0816125dd565b81146125fb57600080fd5b50565b60008135905061260d816125e7565b92915050565b60006020828403121561262957612628612466565b5b6000612637848285016125fe565b91505092915050565b600073ffffffffffffffffffffffffffffffffffffffff82169050919050565b600061266b82612640565b9050919050565b61267b81612660565b82525050565b60006020820190506126966000830184612672565b92915050565b6126a581612660565b81146126b057600080fd5b50565b6000813590506126c28161269c565b92915050565b600080604083850312156126df576126de612466565b5b60006126ed858286016126b3565b92505060206126fe858286016125fe565b9150509250929050565b6000806040838503121561271f5761271e612466565b5b600061272d858286016126b3565b925050602061273e858286016126b3565b9150509250929050565b60008060006060848603121561276157612760612466565b5b600061276f868287016126b3565b9350506020612780868287016126b3565b9250506040612791868287016125fe565b9150509250925092565b6000602082840312156127b1576127b0612466565b5b60006127bf848285016126b3565b91505092915050565b6127d1816125dd565b82525050565b60006020820190506127ec60008301846127c8565b92915050565b6000608082019050818103600083015261280c8187612582565b905061281b6020830186612672565b6128286040830185612672565b6128356060830184612501565b95945050505050565b612847816124f5565b811461285257600080fd5b50565b6000813590506128648161283e565b92915050565b6000806040838503121561288157612880612466565b5b600061288f858286016126b3565b92505060206128a085828601612855565b9150509250929050565b600080fd5b600080fd5b7f4e487b7100000000000000000000000000000000000000000000000000000000600052604160045260246000fd5b6128ec82612571565b810181811067ffffffffffffffff8211171561290b5761290a6128b4565b5b80604052505050565b600061291e61245c565b905061292a82826128e3565b919050565b600067ffffffffffffffff82111561294a576129496128b4565b5b61295382612571565b9050602081019050919050565b82818337600083830152505050565b600061298261297d8461292f565b612914565b90508281526020810184848401111561299e5761299d6128af565b5b6129a9848285612960565b509392505050565b600082601f8301126129c6576129c56128aa565b5b81356129d684826020860161296f565b91505092915050565b600080600080608085870312156129f9576129f8612466565b5b6000612a07878288016126b3565b9450506020612a18878288016126b3565b9350506040612a29878288016125fe565b925050606085013567ffffffffffffffff811115612a4a57612a4961246b565b5b612a56878288016129b1565b91505092959194509250565b6000604082019050612a776000830185612501565b612a846020830184612672565b9392505050565b600067ffffffffffffffff821115612aa657612aa56128b4565b5b612aaf82612571565b9050602081019050919050565b6000612acf612aca84612a8b565b612914565b905082815260208101848484011115612aeb57612aea6128af565b5b612af6848285612960565b509392505050565b600082601f830112612b1357612b126128aa565b5b8135612b23848260208601612abc565b91505092915050565b600080600060608486031215612b4557612b44612466565b5b6000612b53868287016126b3565b935050602084013567ffffffffffffffff811115612b7457612b7361246b565b5b612b8086828701612afe565b9250506040612b91868287016126b3565b9150509250925092565b7f4e487b7100000000000000000000000000000000000000000000000000000000600052602260045260246000fd5b60006002820490506001821680612be257607f821691505b602082108103612bf557612bf4612b9b565b5b50919050565b7f596f7520617265206e6f742061737369676e656420746f2074686973204e465460008201527f2e00000000000000000000000000000000000000000000000000000000000000602082015250565b6000612c57602183612536565b9150612c6282612bfb565b604082019050919050565b60006020820190508181036000830152612c8681612c4a565b9050919050565b7f54686973206465677265652068617320616c7265616479206265656e20696e7660008201527f616c6964617465642e0000000000000000000000000000000000000000000000602082015250565b6000612ce9602983612536565b9150612cf482612c8d565b604082019050919050565b60006020820190508181036000830152612d1881612cdc565b9050919050565b6000604082019050612d3460008301856127c8565b612d416020830184612501565b9392505050565b6000606082019050612d5d6000830186612672565b612d6a60208301856127c8565b612d776040830184612672565b949350505050565b7f4f6e6c7920617574686f72697a656420756e69766572736974792063616e206d60008201527f696e74204e4654732e0000000000000000000000000000000000000000000000602082015250565b6000612ddb602983612536565b9150612de682612d7f565b604082019050919050565b60006020820190508181036000830152612e0a81612dce565b9050919050565b7f596f7520617265206e6f74207468652069737375696e6720756e69766572736960008201527f74792e0000000000000000000000000000000000000000000000000000000000602082015250565b6000612e6d602383612536565b9150612e7882612e11565b604082019050919050565b60006020820190508181036000830152612e9c81612e60565b9050919050565b7f416d6f756e742073686f756c64206265206d6f7265207468616e207a65726f2e600082015250565b6000612ed9602083612536565b9150612ee482612ea3565b602082019050919050565b60006020820190508181036000830152612f0881612ecc565b9050919050565b7f4e487b7100000000000000000000000000000000000000000000000000000000600052601160045260246000fd5b6000612f49826125dd565b9150612f54836125dd565b9250828201905080821115612f6c57612f6b612f0f565b5b92915050565b600081905092915050565b6000612f888261252b565b612f928185612f72565b9350612fa2818560208601612547565b80840191505092915050565b6000612fba8285612f7d565b9150612fc68284612f7d565b91508190509392505050565b7f41737369676e6564206d656d626572206d75737420626520616e20616374697660008201527f65207374616b65722e0000000000000000000000000000000000000000000000602082015250565b600061302e602983612536565b915061303982612fd2565b604082019050919050565b6000602082019050818103600083015261305d81613021565b9050919050565b600061306f826125dd565b91507fffffffffffffffffffffffffffffffffffffffffffffffffffffffffffffffff82036130a1576130a0612f0f565b5b600182019050919050565b60008190508160005260206000209050919050565b60006020601f8301049050919050565b600082821b905092915050565b60006008830261310e7fffffffffffffffffffffffffffffffffffffffffffffffffffffffffffffffff826130d1565b61311886836130d1565b95508019841693508086168417925050509392505050565b6000819050919050565b600061315561315061314b846125dd565b613130565b6125dd565b9050919050565b6000819050919050565b61316f8361313a565b61318361317b8261315c565b8484546130de565b825550505050565b600090565b61319861318b565b6131a3818484613166565b505050565b5b818110156131c7576131bc600082613190565b6001810190506131a9565b5050565b601f82111561320c576131dd816130ac565b6131e6846130c1565b810160208510156131f5578190505b613209613201856130c1565b8301826131a8565b50505b505050565b600082821c905092915050565b600061322f60001984600802613211565b1980831691505092915050565b6000613248838361321e565b9150826002028217905092915050565b6132618261252b565b67ffffffffffffffff81111561327a576132796128b4565b5b6132848254612bca565b61328f8282856131cb565b600060209050601f8311600181146132c257600084156132b0578287015190505b6132ba858261323c565b865550613322565b601f1984166132d0866130ac565b60005b828110156132f8578489015182556001820191506020850194506020810190506132d3565b868310156133155784890151613311601f89168261321e565b8355505b6001600288020188555050505b505050505050565b600060408201905061333f60008301856127c8565b61334c6020830184612672565b9392505050565b600081519050919050565b600082825260208201905092915050565b600061337a82613353565b613384818561335e565b9350613394818560208601612547565b61339d81612571565b840191505092915050565b60006080820190506133bd6000830187612672565b6133ca6020830186612672565b6133d760408301856127c8565b81810360608301526133e9818461336f565b905095945050505050565b6000815190506134038161249c565b92915050565b60006020828403121561341f5761341e612466565b5b600061342d848285016133f4565b91505092915050565b7f4e487b7100000000000000000000000000000000000000000000000000000000600052601260045260246000fd5b600060408201905061347a6000830185612672565b61348760208301846127c8565b939250505056fea26469706673582212202e276c071bc5c41c74db1af1305bf152a1c434f8dc2cc4d8be62a04817b2025e64736f6c634300081b0033",
  "linkReferences": {},
  "deployedLinkReferences": {}
}